{
    "abi": [
        {
            "anonymous": false,
            "inputs": [
                {
                    "indexed": true,
                    "internalType": "bytes32",
                    "name": "logId",
                    "type": "bytes32"
                },
                {
                    "indexed": true,
                    "internalType": "uint256",
                    "name": "timestamp",
                    "type": "uint256"
                },
                {
                    "indexed": true,
                    "internalType": "uint8",
                    "name": "server",
                    "type": "uint8"
                },
                {
                    "indexed": false,
                    "internalType": "string",
                    "name": "message",
                    "type": "string"
                }
            ],
            "name": "LogMetadata",
            "type": "event"
        },
        {
            "inputs": [
                {
                    "internalType": "bytes32",
                    "name": "logId",
                    "type": "bytes32"
                },
                {
                    "internalType": "uint256",
                    "name": "timestamp",
                    "type": "uint256"
                },
                {
                    "internalType": "uint8",
                    "name": "server",
                    "type": "uint8"
                },
                {
                    "internalType": "string",
                    "name": "message",
                    "type": "string"
                }
            ],
            "name": "emitLog",
            "outputs": [],
            "stateMutability": "nonpayable",
            "type": "function"
        }
    ],
    "devdoc": {
        "kind": "dev",
        "methods": {},
        "version": 1
    },
    "evm": {
        "assembly": "    /* \"LogEmitter.sol\":58:441  contract LogEmitter {... */\n  mstore(0x40, 0x80)\n  callvalue\n  dup1\n  iszero\n  tag_1\n  jumpi\n  0x00\n  dup1\n  revert\ntag_1:\n  pop\n  dataSize(sub_0)\n  dup1\n  dataOffset(sub_0)\n  0x00\n  codecopy\n  0x00\n  return\nstop\n\nsub_0: assembly {\n        /* \"LogEmitter.sol\":58:441  contract LogEmitter {... */\n      mstore(0x40, 0x80)\n      callvalue\n      dup1\n      iszero\n      tag_1\n      jumpi\n      0x00\n      dup1\n      revert\n    tag_1:\n      pop\n      jumpi(tag_2, lt(calldatasize, 0x04))\n      shr(0xe0, calldataload(0x00))\n      dup1\n      0x3e278165\n      eq\n      tag_3\n      jumpi\n    tag_2:\n      0x00\n      dup1\n      revert\n        /* \"LogEmitter.sol\":234:439  function emitLog(... */\n    tag_3:\n      tag_4\n      0x04\n      dup1\n      calldatasize\n      sub\n      dup2\n      add\n      swap1\n      tag_5\n      swap2\n      swap1\n      tag_6\n      jump\t// in\n    tag_5:\n      tag_7\n      jump\t// in\n    tag_4:\n      stop\n    tag_7:\n        /* \"LogEmitter.sol\":416:422  server */\n      dup3\n        /* \"LogEmitter.sol\":386:432  LogMetadata(logId, timestamp, server, message) */\n      0xff\n      and\n        /* \"LogEmitter.sol\":405:414  timestamp */\n      dup5\n        /* \"LogEmitter.sol\":398:403  logId */\n      dup7\n        /* \"LogEmitter.sol\":386:432  LogMetadata(logId, timestamp, server, message) */\n      0x33e2cc092e205835126cfbf7b6b6e7f665cb84efbba582b33625d1c3f8b27abc\n        /* \"LogEmitter.sol\":424:431  message */\n      dup6\n      dup6\n        /* \"LogEmitter.sol\":386:432  LogMetadata(logId, timestamp, server, message) */\n      mload(0x40)\n      tag_9\n      swap3\n      swap2\n      swap1\n      tag_10\n      jump\t// in\n    tag_9:\n      mload(0x40)\n      dup1\n      swap2\n      sub\n      swap1\n      log4\n        /* \"LogEmitter.sol\":234:439  function emitLog(... */\n      pop\n      pop\n      pop\n      pop\n      pop\n      jump\t// out\n        /* \"#utility.yul\":88:205   */\n    tag_12:\n        /* \"#utility.yul\":197:198   */\n      0x00\n        /* \"#utility.yul\":194:195   */\n      dup1\n        /* \"#utility.yul\":187:199   */\n      revert\n        /* \"#utility.yul\":211:328   */\n    tag_13:\n        /* \"#utility.yul\":320:321   */\n      0x00\n        /* \"#utility.yul\":317:318   */\n      dup1\n        /* \"#utility.yul\":310:322   */\n      revert\n        /* \"#utility.yul\":334:411   */\n    tag_14:\n        /* \"#utility.yul\":371:378   */\n      0x00\n        /* \"#utility.yul\":400:405   */\n      dup2\n        /* \"#utility.yul\":389:405   */\n      swap1\n      pop\n        /* \"#utility.yul\":334:411   */\n      swap2\n      swap1\n      pop\n      jump\t// out\n        /* \"#utility.yul\":417:539   */\n    tag_15:\n        /* \"#utility.yul\":490:514   */\n      tag_37\n        /* \"#utility.yul\":508:513   */\n      dup2\n        /* \"#utility.yul\":490:514   */\n      tag_14\n      jump\t// in\n    tag_37:\n        /* \"#utility.yul\":483:488   */\n      dup2\n        /* \"#utility.yul\":480:515   */\n      eq\n        /* \"#utility.yul\":470:533   */\n      tag_38\n      jumpi\n        /* \"#utility.yul\":529:530   */\n      0x00\n        /* \"#utility.yul\":526:527   */\n      dup1\n        /* \"#utility.yul\":519:531   */\n      revert\n        /* \"#utility.yul\":470:533   */\n    tag_38:\n        /* \"#utility.yul\":417:539   */\n      pop\n      jump\t// out\n        /* \"#utility.yul\":545:684   */\n    tag_16:\n        /* \"#utility.yul\":591:596   */\n      0x00\n        /* \"#utility.yul\":629:635   */\n      dup2\n        /* \"#utility.yul\":616:636   */\n      calldataload\n        /* \"#utility.yul\":607:636   */\n      swap1\n      pop\n        /* \"#utility.yul\":645:678   */\n      tag_40\n        /* \"#utility.yul\":672:677   */\n      dup2\n        /* \"#utility.yul\":645:678   */\n      tag_15\n      jump\t// in\n    tag_40:\n        /* \"#utility.yul\":545:684   */\n      swap3\n      swap2\n      pop\n      pop\n      jump\t// out\n        /* \"#utility.yul\":690:767   */\n    tag_17:\n        /* \"#utility.yul\":727:734   */\n      0x00\n        /* \"#utility.yul\":756:761   */\n      dup2\n        /* \"#utility.yul\":745:761   */\n      swap1\n      pop\n        /* \"#utility.yul\":690:767   */\n      swap2\n      swap1\n      pop\n      jump\t// out\n        /* \"#utility.yul\":773:895   */\n    tag_18:\n        /* \"#utility.yul\":846:870   */\n      tag_43\n        /* \"#utility.yul\":864:869   */\n      dup2\n        /* \"#utility.yul\":846:870   */\n      tag_17\n      jump\t// in\n    tag_43:\n        /* \"#utility.yul\":839:844   */\n      dup2\n        /* \"#utility.yul\":836:871   */\n      eq\n        /* \"#utility.yul\":826:889   */\n      tag_44\n      jumpi\n        /* \"#utility.yul\":885:886   */\n      0x00\n        /* \"#utility.yul\":882:883   */\n      dup1\n        /* \"#utility.yul\":875:887   */\n      revert\n        /* \"#utility.yul\":826:889   */\n    tag_44:\n        /* \"#utility.yul\":773:895   */\n      pop\n      jump\t// out\n        /* \"#utility.yul\":901:1040   */\n    tag_19:\n        /* \"#utility.yul\":947:952   */\n      0x00\n        /* \"#utility.yul\":985:991   */\n      dup2\n        /* \"#utility.yul\":972:992   */\n      calldataload\n        /* \"#utility.yul\":963:992   */\n      swap1\n      pop\n        /* \"#utility.yul\":1001:1034   */\n      tag_46\n        /* \"#utility.yul\":1028:1033   */\n      dup2\n        /* \"#utility.yul\":1001:1034   */\n      tag_18\n      jump\t// in\n    tag_46:\n        /* \"#utility.yul\":901:1040   */\n      swap3\n      swap2\n      pop\n      pop\n      jump\t// out\n        /* \"#utility.yul\":1046:1132   */\n    tag_20:\n        /* \"#utility.yul\":1081:1088   */\n      0x00\n        /* \"#utility.yul\":1121:1125   */\n      0xff\n        /* \"#utility.yul\":1114:1119   */\n      dup3\n        /* \"#utility.yul\":1110:1126   */\n      and\n        /* \"#utility.yul\":1099:1126   */\n      swap1\n      pop\n        /* \"#utility.yul\":1046:1132   */\n      swap2\n      swap1\n      pop\n      jump\t// out\n        /* \"#utility.yul\":1138:1256   */\n    tag_21:\n        /* \"#utility.yul\":1209:1231   */\n      tag_49\n        /* \"#utility.yul\":1225:1230   */\n      dup2\n        /* \"#utility.yul\":1209:1231   */\n      tag_20\n      jump\t// in\n    tag_49:\n        /* \"#utility.yul\":1202:1207   */\n      dup2\n        /* \"#utility.yul\":1199:1232   */\n      eq\n        /* \"#utility.yul\":1189:1250   */\n      tag_50\n      jumpi\n        /* \"#utility.yul\":1246:1247   */\n      0x00\n        /* \"#utility.yul\":1243:1244   */\n      dup1\n        /* \"#utility.yul\":1236:1248   */\n      revert\n        /* \"#utility.yul\":1189:1250   */\n    tag_50:\n        /* \"#utility.yul\":1138:1256   */\n      pop\n      jump\t// out\n        /* \"#utility.yul\":1262:1397   */\n    tag_22:\n        /* \"#utility.yul\":1306:1311   */\n      0x00\n        /* \"#utility.yul\":1344:1350   */\n      dup2\n        /* \"#utility.yul\":1331:1351   */\n      calldataload\n        /* \"#utility.yul\":1322:1351   */\n      swap1\n      pop\n        /* \"#utility.yul\":1360:1391   */\n      tag_52\n        /* \"#utility.yul\":1385:1390   */\n      dup2\n        /* \"#utility.yul\":1360:1391   */\n      tag_21\n      jump\t// in\n    tag_52:\n        /* \"#utility.yul\":1262:1397   */\n      swap3\n      swap2\n      pop\n      pop\n      jump\t// out\n        /* \"#utility.yul\":1403:1520   */\n    tag_23:\n        /* \"#utility.yul\":1512:1513   */\n      0x00\n        /* \"#utility.yul\":1509:1510   */\n      dup1\n        /* \"#utility.yul\":1502:1514   */\n      revert\n        /* \"#utility.yul\":1526:1643   */\n    tag_24:\n        /* \"#utility.yul\":1635:1636   */\n      0x00\n        /* \"#utility.yul\":1632:1633   */\n      dup1\n        /* \"#utility.yul\":1625:1637   */\n      revert\n        /* \"#utility.yul\":1649:1766   */\n    tag_25:\n        /* \"#utility.yul\":1758:1759   */\n      0x00\n        /* \"#utility.yul\":1755:1756   */\n      dup1\n        /* \"#utility.yul\":1748:1760   */\n      revert\n        /* \"#utility.yul\":1786:2339   */\n    tag_26:\n        /* \"#utility.yul\":1844:1852   */\n      0x00\n        /* \"#utility.yul\":1854:1860   */\n      dup1\n        /* \"#utility.yul\":1904:1907   */\n      dup4\n        /* \"#utility.yul\":1897:1901   */\n      0x1f\n        /* \"#utility.yul\":1889:1895   */\n      dup5\n        /* \"#utility.yul\":1885:1902   */\n      add\n        /* \"#utility.yul\":1881:1908   */\n      slt\n        /* \"#utility.yul\":1871:1993   */\n      tag_57\n      jumpi\n        /* \"#utility.yul\":1912:1991   */\n      tag_58\n      tag_23\n      jump\t// in\n    tag_58:\n        /* \"#utility.yul\":1871:1993   */\n    tag_57:\n        /* \"#utility.yul\":2025:2031   */\n      dup3\n        /* \"#utility.yul\":2012:2032   */\n      calldataload\n        /* \"#utility.yul\":2002:2032   */\n      swap1\n      pop\n        /* \"#utility.yul\":2055:2073   */\n      0xffffffffffffffff\n        /* \"#utility.yul\":2047:2053   */\n      dup2\n        /* \"#utility.yul\":2044:2074   */\n      gt\n        /* \"#utility.yul\":2041:2158   */\n      iszero\n      tag_59\n      jumpi\n        /* \"#utility.yul\":2077:2156   */\n      tag_60\n      tag_24\n      jump\t// in\n    tag_60:\n        /* \"#utility.yul\":2041:2158   */\n    tag_59:\n        /* \"#utility.yul\":2191:2195   */\n      0x20\n        /* \"#utility.yul\":2183:2189   */\n      dup4\n        /* \"#utility.yul\":2179:2196   */\n      add\n        /* \"#utility.yul\":2167:2196   */\n      swap2\n      pop\n        /* \"#utility.yul\":2245:2248   */\n      dup4\n        /* \"#utility.yul\":2237:2241   */\n      0x01\n        /* \"#utility.yul\":2229:2235   */\n      dup3\n        /* \"#utility.yul\":2225:2242   */\n      mul\n        /* \"#utility.yul\":2215:2223   */\n      dup4\n        /* \"#utility.yul\":2211:2243   */\n      add\n        /* \"#utility.yul\":2208:2249   */\n      gt\n        /* \"#utility.yul\":2205:2333   */\n      iszero\n      tag_61\n      jumpi\n        /* \"#utility.yul\":2252:2331   */\n      tag_62\n      tag_25\n      jump\t// in\n    tag_62:\n        /* \"#utility.yul\":2205:2333   */\n    tag_61:\n        /* \"#utility.yul\":1786:2339   */\n      swap3\n      pop\n      swap3\n      swap1\n      pop\n      jump\t// out\n        /* \"#utility.yul\":2345:3306   */\n    tag_6:\n        /* \"#utility.yul\":2441:2447   */\n      0x00\n        /* \"#utility.yul\":2449:2455   */\n      dup1\n        /* \"#utility.yul\":2457:2463   */\n      0x00\n        /* \"#utility.yul\":2465:2471   */\n      dup1\n        /* \"#utility.yul\":2473:2479   */\n      0x00\n        /* \"#utility.yul\":2522:2525   */\n      0x80\n        /* \"#utility.yul\":2510:2519   */\n      dup7\n        /* \"#utility.yul\":2501:2508   */\n      dup9\n        /* \"#utility.yul\":2497:2520   */\n      sub\n        /* \"#utility.yul\":2493:2526   */\n      slt\n        /* \"#utility.yul\":2490:2610   */\n      iszero\n      tag_64\n      jumpi\n        /* \"#utility.yul\":2529:2608   */\n      tag_65\n      tag_12\n      jump\t// in\n    tag_65:\n        /* \"#utility.yul\":2490:2610   */\n    tag_64:\n        /* \"#utility.yul\":2649:2650   */\n      0x00\n        /* \"#utility.yul\":2674:2727   */\n      tag_66\n        /* \"#utility.yul\":2719:2726   */\n      dup9\n        /* \"#utility.yul\":2710:2716   */\n      dup3\n        /* \"#utility.yul\":2699:2708   */\n      dup10\n        /* \"#utility.yul\":2695:2717   */\n      add\n        /* \"#utility.yul\":2674:2727   */\n      tag_16\n      jump\t// in\n    tag_66:\n        /* \"#utility.yul\":2664:2727   */\n      swap6\n      pop\n        /* \"#utility.yul\":2620:2737   */\n      pop\n        /* \"#utility.yul\":2776:2778   */\n      0x20\n        /* \"#utility.yul\":2802:2855   */\n      tag_67\n        /* \"#utility.yul\":2847:2854   */\n      dup9\n        /* \"#utility.yul\":2838:2844   */\n      dup3\n        /* \"#utility.yul\":2827:2836   */\n      dup10\n        /* \"#utility.yul\":2823:2845   */\n      add\n        /* \"#utility.yul\":2802:2855   */\n      tag_19\n      jump\t// in\n    tag_67:\n        /* \"#utility.yul\":2792:2855   */\n      swap5\n      pop\n        /* \"#utility.yul\":2747:2865   */\n      pop\n        /* \"#utility.yul\":2904:2906   */\n      0x40\n        /* \"#utility.yul\":2930:2981   */\n      tag_68\n        /* \"#utility.yul\":2973:2980   */\n      dup9\n        /* \"#utility.yul\":2964:2970   */\n      dup3\n        /* \"#utility.yul\":2953:2962   */\n      dup10\n        /* \"#utility.yul\":2949:2971   */\n      add\n        /* \"#utility.yul\":2930:2981   */\n      tag_22\n      jump\t// in\n    tag_68:\n        /* \"#utility.yul\":2920:2981   */\n      swap4\n      pop\n        /* \"#utility.yul\":2875:2991   */\n      pop\n        /* \"#utility.yul\":3058:3060   */\n      0x60\n        /* \"#utility.yul\":3047:3056   */\n      dup7\n        /* \"#utility.yul\":3043:3061   */\n      add\n        /* \"#utility.yul\":3030:3062   */\n      calldataload\n        /* \"#utility.yul\":3089:3107   */\n      0xffffffffffffffff\n        /* \"#utility.yul\":3081:3087   */\n      dup2\n        /* \"#utility.yul\":3078:3108   */\n      gt\n        /* \"#utility.yul\":3075:3192   */\n      iszero\n      tag_69\n      jumpi\n        /* \"#utility.yul\":3111:3190   */\n      tag_70\n      tag_13\n      jump\t// in\n    tag_70:\n        /* \"#utility.yul\":3075:3192   */\n    tag_69:\n        /* \"#utility.yul\":3224:3289   */\n      tag_71\n        /* \"#utility.yul\":3281:3288   */\n      dup9\n        /* \"#utility.yul\":3272:3278   */\n      dup3\n        /* \"#utility.yul\":3261:3270   */\n      dup10\n        /* \"#utility.yul\":3257:3279   */\n      add\n        /* \"#utility.yul\":3224:3289   */\n      tag_26\n      jump\t// in\n    tag_71:\n        /* \"#utility.yul\":3206:3289   */\n      swap3\n      pop\n      swap3\n      pop\n        /* \"#utility.yul\":3001:3299   */\n      pop\n        /* \"#utility.yul\":2345:3306   */\n      swap3\n      swap6\n      pop\n      swap3\n      swap6\n      swap1\n      swap4\n      pop\n      jump\t// out\n        /* \"#utility.yul\":3312:3481   */\n    tag_27:\n        /* \"#utility.yul\":3396:3407   */\n      0x00\n        /* \"#utility.yul\":3430:3436   */\n      dup3\n        /* \"#utility.yul\":3425:3428   */\n      dup3\n        /* \"#utility.yul\":3418:3437   */\n      mstore\n        /* \"#utility.yul\":3470:3474   */\n      0x20\n        /* \"#utility.yul\":3465:3468   */\n      dup3\n        /* \"#utility.yul\":3461:3475   */\n      add\n        /* \"#utility.yul\":3446:3475   */\n      swap1\n      pop\n        /* \"#utility.yul\":3312:3481   */\n      swap3\n      swap2\n      pop\n      pop\n      jump\t// out\n        /* \"#utility.yul\":3487:3641   */\n    tag_28:\n        /* \"#utility.yul\":3571:3577   */\n      dup3\n        /* \"#utility.yul\":3566:3569   */\n      dup2\n        /* \"#utility.yul\":3561:3564   */\n      dup4\n        /* \"#utility.yul\":3548:3578   */\n      calldatacopy\n        /* \"#utility.yul\":3633:3634   */\n      0x00\n        /* \"#utility.yul\":3624:3630   */\n      dup4\n        /* \"#utility.yul\":3619:3622   */\n      dup4\n        /* \"#utility.yul\":3615:3631   */\n      add\n        /* \"#utility.yul\":3608:3635   */\n      mstore\n        /* \"#utility.yul\":3487:3641   */\n      pop\n      pop\n      pop\n      jump\t// out\n        /* \"#utility.yul\":3647:3749   */\n    tag_29:\n        /* \"#utility.yul\":3688:3694   */\n      0x00\n        /* \"#utility.yul\":3739:3741   */\n      0x1f\n        /* \"#utility.yul\":3735:3742   */\n      not\n        /* \"#utility.yul\":3730:3732   */\n      0x1f\n        /* \"#utility.yul\":3723:3728   */\n      dup4\n        /* \"#utility.yul\":3719:3733   */\n      add\n        /* \"#utility.yul\":3715:3743   */\n      and\n        /* \"#utility.yul\":3705:3743   */\n      swap1\n      pop\n        /* \"#utility.yul\":3647:3749   */\n      swap2\n      swap1\n      pop\n      jump\t// out\n        /* \"#utility.yul\":3779:4083   */\n    tag_30:\n        /* \"#utility.yul\":3877:3880   */\n      0x00\n        /* \"#utility.yul\":3898:3969   */\n      tag_76\n        /* \"#utility.yul\":3962:3968   */\n      dup4\n        /* \"#utility.yul\":3957:3960   */\n      dup6\n        /* \"#utility.yul\":3898:3969   */\n      tag_27\n      jump\t// in\n    tag_76:\n        /* \"#utility.yul\":3891:3969   */\n      swap4\n      pop\n        /* \"#utility.yul\":3979:4022   */\n      tag_77\n        /* \"#utility.yul\":4015:4021   */\n      dup4\n        /* \"#utility.yul\":4010:4013   */\n      dup6\n        /* \"#utility.yul\":4003:4008   */\n      dup5\n        /* \"#utility.yul\":3979:4022   */\n      tag_28\n      jump\t// in\n    tag_77:\n        /* \"#utility.yul\":4047:4076   */\n      tag_78\n        /* \"#utility.yul\":4069:4075   */\n      dup4\n        /* \"#utility.yul\":4047:4076   */\n      tag_29\n      jump\t// in\n    tag_78:\n        /* \"#utility.yul\":4042:4045   */\n      dup5\n        /* \"#utility.yul\":4038:4077   */\n      add\n        /* \"#utility.yul\":4031:4077   */\n      swap1\n      pop\n        /* \"#utility.yul\":3779:4083   */\n      swap4\n      swap3\n      pop\n      pop\n      pop\n      jump\t// out\n        /* \"#utility.yul\":4089:4422   */\n    tag_10:\n        /* \"#utility.yul\":4212:4216   */\n      0x00\n        /* \"#utility.yul\":4250:4252   */\n      0x20\n        /* \"#utility.yul\":4239:4248   */\n      dup3\n        /* \"#utility.yul\":4235:4253   */\n      add\n        /* \"#utility.yul\":4227:4253   */\n      swap1\n      pop\n        /* \"#utility.yul\":4299:4308   */\n      dup2\n        /* \"#utility.yul\":4293:4297   */\n      dup2\n        /* \"#utility.yul\":4289:4309   */\n      sub\n        /* \"#utility.yul\":4285:4286   */\n      0x00\n        /* \"#utility.yul\":4274:4283   */\n      dup4\n        /* \"#utility.yul\":4270:4287   */\n      add\n        /* \"#utility.yul\":4263:4310   */\n      mstore\n        /* \"#utility.yul\":4327:4415   */\n      tag_80\n        /* \"#utility.yul\":4410:4414   */\n      dup2\n        /* \"#utility.yul\":4401:4407   */\n      dup5\n        /* \"#utility.yul\":4393:4399   */\n      dup7\n        /* \"#utility.yul\":4327:4415   */\n      tag_30\n      jump\t// in\n    tag_80:\n        /* \"#utility.yul\":4319:4415   */\n      swap1\n      pop\n        /* \"#utility.yul\":4089:4422   */\n      swap4\n      swap3\n      pop\n      pop\n      pop\n      jump\t// out\n\n    auxdata: 0xa2646970667358221220c693018ed59c1c635f7a328a176f49e3bdaf1158da927a0ac6bce62f43ea1a4e64736f6c634300080a0033\n}\n",
        "bytecode": {
            "linkReferences": {},
            "object": "608060405234801561001057600080fd5b506102e6806100206000396000f3fe608060405234801561001057600080fd5b506004361061002b5760003560e01c80633e27816514610030575b600080fd5b61004a600480360381019061004591906101a6565b61004c565b005b8260ff1684867f33e2cc092e205835126cfbf7b6b6e7f665cb84efbba582b33625d1c3f8b27abc858560405161008392919061028c565b60405180910390a45050505050565b600080fd5b600080fd5b6000819050919050565b6100af8161009c565b81146100ba57600080fd5b50565b6000813590506100cc816100a6565b92915050565b6000819050919050565b6100e5816100d2565b81146100f057600080fd5b50565b600081359050610102816100dc565b92915050565b600060ff82169050919050565b61011e81610108565b811461012957600080fd5b50565b60008135905061013b81610115565b92915050565b600080fd5b600080fd5b600080fd5b60008083601f84011261016657610165610141565b5b8235905067ffffffffffffffff81111561018357610182610146565b5b60208301915083600182028301111561019f5761019e61014b565b5b9250929050565b6000806000806000608086880312156101c2576101c1610092565b5b60006101d0888289016100bd565b95505060206101e1888289016100f3565b94505060406101f28882890161012c565b935050606086013567ffffffffffffffff81111561021357610212610097565b5b61021f88828901610150565b92509250509295509295909350565b600082825260208201905092915050565b82818337600083830152505050565b6000601f19601f8301169050919050565b600061026b838561022e565b935061027883858461023f565b6102818361024e565b840190509392505050565b600060208201905081810360008301526102a781848661025f565b9050939250505056fea2646970667358221220c693018ed59c1c635f7a328a176f49e3bdaf1158da927a0ac6bce62f43ea1a4e64736f6c634300080a0033",
            "opcodes": "PUSH1 0x80 PUSH1 0x40 MSTORE CALLVALUE DUP1 ISZERO PUSH2 0x10 JUMPI PUSH1 0x0 DUP1 REVERT JUMPDEST POP PUSH2 0x2E6 DUP1 PUSH2 0x20 PUSH1 0x0 CODECOPY PUSH1 0x0 RETURN INVALID PUSH1 0x80 PUSH1 0x40 MSTORE CALLVALUE DUP1 ISZERO PUSH2 0x10 JUMPI PUSH1 0x0 DUP1 REVERT JUMPDEST POP PUSH1 0x4 CALLDATASIZE LT PUSH2 0x2B JUMPI PUSH1 0x0 CALLDATALOAD PUSH1 0xE0 SHR DUP1 PUSH4 0x3E278165 EQ PUSH2 0x30 JUMPI JUMPDEST PUSH1 0x0 DUP1 REVERT JUMPDEST PUSH2 0x4A PUSH1 0x4 DUP1 CALLDATASIZE SUB DUP2 ADD SWAP1 PUSH2 0x45 SWAP2 SWAP1 PUSH2 0x1A6 JUMP JUMPDEST PUSH2 0x4C JUMP JUMPDEST STOP JUMPDEST DUP3 PUSH1 0xFF AND DUP5 DUP7 PUSH32 0x33E2CC092E205835126CFBF7B6B6E7F665CB84EFBBA582B33625D1C3F8B27ABC DUP6 DUP6 PUSH1 0x40 MLOAD PUSH2 0x83 SWAP3 SWAP2 SWAP1 PUSH2 0x28C JUMP JUMPDEST PUSH1 0x40 MLOAD DUP1 SWAP2 SUB SWAP1 LOG4 POP POP POP POP POP JUMP JUMPDEST PUSH1 0x0 DUP1 REVERT JUMPDEST PUSH1 0x0 DUP1 REVERT JUMPDEST PUSH1 0x0 DUP2 SWAP1 POP SWAP2 SWAP1 POP JUMP JUMPDEST PUSH2 0xAF DUP2 PUSH2 0x9C JUMP JUMPDEST DUP2 EQ PUSH2 0xBA JUMPI PUSH1 0x0 DUP1 REVERT JUMPDEST POP JUMP JUMPDEST PUSH1 0x0 DUP2 CALLDATALOAD SWAP1 POP PUSH2 0xCC DUP2 PUSH2 0xA6 JUMP JUMPDEST SWAP3 SWAP2 POP POP JUMP JUMPDEST PUSH1 0x0 DUP2 SWAP1 POP SWAP2 SWAP1 POP JUMP JUMPDEST PUSH2 0xE5 DUP2 PUSH2 0xD2 JUMP JUMPDEST DUP2 EQ PUSH2 0xF0 JUMPI PUSH1 0x0 DUP1 REVERT JUMPDEST POP JUMP JUMPDEST PUSH1 0x0 DUP2 CALLDATALOAD SWAP1 POP PUSH2 0x102 DUP2 PUSH2 0xDC JUMP JUMPDEST SWAP3 SWAP2 POP POP JUMP JUMPDEST PUSH1 0x0 PUSH1 0xFF DUP3 AND SWAP1 POP SWAP2 SWAP1 POP JUMP JUMPDEST PUSH2 0x11E DUP2 PUSH2 0x108 JUMP JUMPDEST DUP2 EQ PUSH2 0x129 JUMPI PUSH1 0x0 DUP1 REVERT JUMPDEST POP JUMP JUMPDEST PUSH1 0x0 DUP2 CALLDATALOAD SWAP1 POP PUSH2 0x13B DUP2 PUSH2 0x115 JUMP JUMPDEST SWAP3 SWAP2 POP POP JUMP JUMPDEST PUSH1 0x0 DUP1 REVERT JUMPDEST PUSH1 0x0 DUP1 REVERT JUMPDEST PUSH1 0x0 DUP1 REVERT JUMPDEST PUSH1 0x0 DUP1 DUP4 PUSH1 0x1F DUP5 ADD SLT PUSH2 0x166 JUMPI PUSH2 0x165 PUSH2 0x141 JUMP JUMPDEST JUMPDEST DUP3 CALLDATALOAD SWAP1 POP PUSH8 0xFFFFFFFFFFFFFFFF DUP2 GT ISZERO PUSH2 0x183 JUMPI PUSH2 0x182 PUSH2 0x146 JUMP JUMPDEST JUMPDEST PUSH1 0x20 DUP4 ADD SWAP2 POP DUP4 PUSH1 0x1 DUP3 MUL DUP4 ADD GT ISZERO PUSH2 0x19F JUMPI PUSH2 0x19E PUSH2 0x14B JUMP JUMPDEST JUMPDEST SWAP3 POP SWAP3 SWAP1 POP JUMP JUMPDEST PUSH1 0x0 DUP1 PUSH1 0x0 DUP1 PUSH1 0x0 PUSH1 0x80 DUP7 DUP9 SUB SLT ISZERO PUSH2 0x1C2 JUMPI PUSH2 0x1C1 PUSH2 0x92 JUMP JUMPDEST JUMPDEST PUSH1 0x0 PUSH2 0x1D0 DUP9 DUP3 DUP10 ADD PUSH2 0xBD JUMP JUMPDEST SWAP6 POP POP PUSH1 0x20 PUSH2 0x1E1 DUP9 DUP3 DUP10 ADD PUSH2 0xF3 JUMP JUMPDEST SWAP5 POP POP PUSH1 0x40 PUSH2 0x1F2 DUP9 DUP3 DUP10 ADD PUSH2 0x12C JUMP JUMPDEST SWAP4 POP POP PUSH1 0x60 DUP7 ADD CALLDATALOAD PUSH8 0xFFFFFFFFFFFFFFFF DUP2 GT ISZERO PUSH2 0x213 JUMPI PUSH2 0x212 PUSH2 0x97 JUMP JUMPDEST JUMPDEST PUSH2 0x21F DUP9 DUP3 DUP10 ADD PUSH2 0x150 JUMP JUMPDEST SWAP3 POP SWAP3 POP POP SWAP3 SWAP6 POP SWAP3 SWAP6 SWAP1 SWAP4 POP JUMP JUMPDEST PUSH1 0x0 DUP3 DUP3 MSTORE PUSH1 0x20 DUP3 ADD SWAP1 POP SWAP3 SWAP2 POP POP JUMP JUMPDEST DUP3 DUP2 DUP4 CALLDATACOPY PUSH1 0x0 DUP4 DUP4 ADD MSTORE POP POP POP JUMP JUMPDEST PUSH1 0x0 PUSH1 0x1F NOT PUSH1 0x1F DUP4 ADD AND SWAP1 POP SWAP2 SWAP1 POP JUMP JUMPDEST PUSH1 0x0 PUSH2 0x26B DUP4 DUP6 PUSH2 0x22E JUMP JUMPDEST SWAP4 POP PUSH2 0x278 DUP4 DUP6 DUP5 PUSH2 0x23F JUMP JUMPDEST PUSH2 0x281 DUP4 PUSH2 0x24E JUMP JUMPDEST DUP5 ADD SWAP1 POP SWAP4 SWAP3 POP POP POP JUMP JUMPDEST PUSH1 0x0 PUSH1 0x20 DUP3 ADD SWAP1 POP DUP2 DUP2 SUB PUSH1 0x0 DUP4 ADD MSTORE PUSH2 0x2A7 DUP2 DUP5 DUP7 PUSH2 0x25F JUMP JUMPDEST SWAP1 POP SWAP4 SWAP3 POP POP POP JUMP INVALID LOG2 PUSH5 0x6970667358 0x22 SLT KECCAK256 0xC6 SWAP4 ADD DUP15 0xD5 SWAP13 SHR PUSH4 0x5F7A328A OR PUSH16 0x49E3BDAF1158DA927A0AC6BCE62F43EA BYTE 0x4E PUSH5 0x736F6C6343 STOP ADDMOD EXP STOP CALLER "
        },
        "gasEstimates": {
            "creation": {
                "codeDepositCost": "148400",
                "executionCost": "196",
                "totalCost": "148596"
            },
            "external": {
                "emitLog(bytes32,uint256,uint8,string)": "infinite"
            }
        },
        "methodIdentifiers": {
            "emitLog(bytes32,uint256,uint8,string)": "3e278165"
        }
    },
    "storageLayout": {
        "storage": [],
        "types": null
    },
    "userdoc": {
        "kind": "user",
        "methods": {},
        "version": 1
    }
}